:020000040000fa
:080000000001040000000000f3
:020000040000fa
:04000800c80100002b
:020000040000fa
:04000c00c801000027
:020000040000fa
:04001000c801000023
:020000040000fa
:04001400c80100001f
:020000040000fa
:04001800c80100001b
:020000040000fa
:04001c00c801000017
:020000040000fa
:04002000c801000013
:020000040000fa
:04002400c80100000f
:020000040000fa
:04002800c80100000b
:020000040000fa
:04002c00c801000007
:020000040000fa
:04003000c801000003
:020000040000fa
:04003400c8010000ff
:020000040000fa
:04003800c8010000fb
:020000040000fa
:04003c00c8010000f7
:020000040000fa
:04004000c8010000f3
:020000040000fa
:04004400c8010000ef
:020000040000fa
:04004800c8010000eb
:020000040000fa
:04004c00c8010000e7
:020000040000fa
:04005000c8010000e3
:020000040000fa
:04005400c8010000df
:020000040000fa
:04005800c8010000db
:020000040000fa
:04005c00c8010000d7
:020000040000fa
:04006000c8010000d3
:020000040000fa
:04006400c8010000cf
:020000040000fa
:04006800c8010000cb
:020000040000fa
:04006c00c8010000c7
:020000040000fa
:04007000c8010000c3
:020000040000fa
:04007400c8010000bf
:020000040000fa
:04007800c8010000bb
:020000040000fa
:04007c00c8010000b7
:020000040000fa
:04008000c8010000b3
:020000040000fa
:04008400c8010000af
:020000040000fa
:04008800c8010000ab
:020000040000fa
:04008c00c8010000a7
:020000040000fa
:04009000c8010000a3
:020000040000fa
:04009400c80100009f
:020000040000fa
:04009800c80100009b
:020000040000fa
:04009c00c801000097
:020000040000fa
:0400a000c801000093
:020000040000fa
:0400a400c80100008f
:020000040000fa
:0400a800c80100008b
:020000040000fa
:0400ac00c801000087
:020000040000fa
:0400b000c801000083
:020000040000fa
:0400b400c80100007f
:020000040000fa
:0400b800c80100007b
:020000040000fa
:0400bc00c801000077
:020000040000fa
:0400c000c801000073
:020000040000fa
:0400c400c80100006f
:020000040000fa
:0400c800c80100006b
:020000040000fa
:0400cc00c801000067
:020000040000fa
:0400d000c801000063
:020000040000fa
:0400d400c80100005f
:020000040000fa
:0400d800c80100005b
:020000040000fa
:04010800c80100002a
:020000040000fa
:04010c00c801000026
:020000040000fa
:04011000c801000022
:020000040000fa
:04011400c80100001e
:020000040000fa
:04011800c80100001a
:020000040000fa
:04011c00c801000016
:020000040000fa
:04012000c801000012
:020000040000fa
:04012400c80100000e
:020000040000fa
:04012800c80100000a
:020000040000fa
:04012c00c801000006
:020000040000fa
:04013000c801000002
:020000040000fa
:04013400c8010000fe
:020000040000fa
:04013800c8010000fa
:020000040000fa
:04013c00c8010000f6
:020000040000fa
:04014000c8010000f2
:020000040000fa
:04014400c8010000ee
:020000040000fa
:04014800c8010000ea
:020000040000fa
:04014c00c8010000e6
:020000040000fa
:04015000c8010000e2
:020000040000fa
:04015400c8010000de
:020000040000fa
:04015800c8010000da
:020000040000fa
:04015c00c8010000d6
:020000040000fa
:04016000c8010000d2
:020000040000fa
:04016400c8010000ce
:020000040000fa
:04016800c8010000ca
:020000040000fa
:04016c00c8010000c6
:020000040000fa
:04017000c8010000c2
:020000040000fa
:04017400c8010000be
:020000040000fa
:04017800c8010000ba
:020000040000fa
:04017c00c8010000b6
:020000040000fa
:04018000c8010000b2
:020000040000fa
:04018400c8010000ae
:020000040000fa
:04018800c8010000aa
:020000040000fa
:04018c00c8010000a6
:020000040000fa
:04019000c8010000a2
:020000040000fa
:04019400c80100009e
:020000040000fa
:04019800c80100009a
:020000040000fa
:04019c00c801000096
:020000040000fa
:0401a000c801000092
:020000040000fa
:0401a400c80100008e
:020000040000fa
:0401a800c80100008a
:020000040000fa
:0401ac00c801000086
:020000040000fa
:0401b000c801000082
:020000040000fa
:0401b400c80100007e
:020000040000fa
:0401b800c80100007a
:020000040000fa
:0401bc00c801000076
:020000040000fa
:0401c000c801000072
:020000040000fa
:0401c400c80100006e
:020000040000fa
:0401c800c80100006a
:020000040000fa
:0401cc00c801000066
:020000040000fa
:0401d000c801000062
:020000040000fa
:0401d400c80100005e
:020000040000fa
:0401d800c80100005a
:020000040000fa
:100200000f8020000e9f20000e01880000000000db
:10021000000020000000e000020032000001200089
:1002200020028800140007005b0007000000e000c7
:1002300003003a0000002000010020000200370007
:100240000000200001002000810f7000010032003a
:1002500014000700000020000000e000020032004f
:100260000000020000000000ce01020000000000bb
:100270000040da000000fe004440a9000000200019
:100280000000e0000300320000002000a001880010
:100290004440a800000006008a1f78008b1f7800e9
:1002a0000000060091018800800478000000eb0047
:1002b0001a003700e284440032a0b4009905ba0065
:1002c000e284440032a0b4009906ba00e2844400fb
:1002d00032a0b4000006eb00476fde00fd07b2005d
:1002e000636ce10003003a00ebff07000000eb0045
:1002f0000a003700606ce10004003a00005deb008a
:100300008b05e900fdff3e00040037006168e10055
:10031000010032000086eb000b00070019c7ba008d
:100320001905ba000e04e00003003a000a00e000dc
:10033000e0ff3a0000000600fe07b2009e018800c0
:100340008a047800f5ff3700395dba008b05e900b3
:100350000c003200295dba008b05e900080032006c
:100360000c00e00003003a00e284440032a0b40034
:10037000f5ff370019ddba008b05e900faff3a00f6
:100380008904e800e184440032a0b40000000600c3
:0c0390000040da000000fe000000050044
:020000040000fa
:10039c000000fa00d822ef00cc22ef00d022ef00b0
:1003ac00dc22ef00a0012000e016880000002400f1
:1003bc008016880040e4230001002000ce000700d6
:1003cc0080012000e01688000000240080168800c0
:1003dc004001200001002000c70007009001200010
:1003ec00e016880000002400801688000006240017
:1003fc0001002000c000070090012000e0168800da
:10040c00d022ef004001200001002000ba000700bc
:10041c0090012000e0168800000022008016880061
:10042c000083240001002000b3000700900020008e
:10043c00e0168800d022ef004001200001002000cf
:10044c00ad00070090022000e01688000000240098
:10045c0080168800400f260001002000a60007002f
:10046c0090022000e0168800d022ef00400120000e
:10047c0001002000a000070090022000e016880078
:10048c00000022008016880040b52f0001002000db
:10049c009900070090022000e0168800d022ef009f
:1004ac004001200001002000930007009002200072
:1004bc00e01688000000240080168800400f2600fb
:1004cc00010020008c00070090002000e01688003e
:1004dc00d022ef0040012000010020008600070020
:1004ec0090012000e0168800000022008016880091
:1004fc0000832400010020007f00070090012000f1
:10050c00e0168800d022ef004001200001002000fe
:10051c007900070090012000e016880000002400fc
:10052c0080168800000624000100200072000700dd
:10053c0010012000e01688000000240080168800be
:10054c0040012000010020006b000700500120003a
:10055c00e0168800000024008016880040e4230088
:10056c00010020006400070040012000e016880014
:10057c0000002400801688004001200001002000ab
:10058c005d00070060012000e016880000002400d8
:10059c008016880000062400010020005600070089
:1005ac0060012000e0168800d022ef0040012000fe
:1005bc00010020005000070060012000e0168800b8
:1005cc000000220080168800008324000100200017
:1005dc004900070060002000e0168800d022ef00e0
:1005ec0040012000010020004300070060022000b1
:1005fc00e01688000000240080168800400f2600ba
:10060c00010020003c00070060022000e01688007a
:10061c00d022ef004001200001002000360007002e
:10062c0060022000e016880000002200801688007e
:10063c0040b52f00010020002f00070060022000b1
:10064c00e0168800d022ef004001200001002000bd
:10065c002900070060022000e0168800000024003a
:10066c0080168800400f26000100200022000700a1
:10067c0060002000e0168800d022ef00400120002e
:10068c00010020001c00070060012000e01688001b
:10069c000000220080168800008324000100200046
:1006ac001500070060012000e0168800d022ef0042
:1006bc0040012000010020000f0007006001200015
:1006cc00e016880000002400801688000006240034
:1006dc00010020000800070020012000e01688001f
:1006ec00000024008016880040012000010020003a
:0806fc00010007002bff37008d
:020000040000fa
:10070400f03fb1000180b10006003500ee0309009e
:1007140000000000403fb1000180b100fbff3d003c
:100724001000b000203fb000020035000080090036
:080734000000000000000600b7
:020000040000fa
:0200000401f009
:04000000f6bf000047
:020000040000fa
:0200000401f009
:04000400ff7f00007a
:020000040000fa
:0200000401f009
:04000800ffff0000f6
:020000040000fa
:0200000401f009
:04001400ffff0000ea
:020000040000fa
:0200000401f009
:04001800ffff0000e6
:00000001FF
