:020000040000fa
:080000000001040000000000f3
:020000040000fa
:04000800b004000040
:020000040000fa
:04000c00b00400003c
:020000040000fa
:04001000b004000038
:020000040000fa
:04001400b004000034
:020000040000fa
:04001800b004000030
:020000040000fa
:04001c00b00400002c
:020000040000fa
:04002000b004000028
:020000040000fa
:04002400b004000024
:020000040000fa
:04002800b004000020
:020000040000fa
:04002c00b00400001c
:020000040000fa
:04003000b004000018
:020000040000fa
:04003400c8010000ff
:020000040000fa
:04003800b004000010
:020000040000fa
:04003c00b00400000c
:020000040000fa
:04004000b004000008
:020000040000fa
:04004400b004000004
:020000040000fa
:04004800b004000000
:020000040000fa
:04004c00b0040000fc
:020000040000fa
:04005000b0040000f8
:020000040000fa
:04005400b0040000f4
:020000040000fa
:04005800b0040000f0
:020000040000fa
:04005c00b0040000ec
:020000040000fa
:04006000b0040000e8
:020000040000fa
:04006400b0040000e4
:020000040000fa
:04006800b0040000e0
:020000040000fa
:04006c00b0040000dc
:020000040000fa
:04007000b0040000d8
:020000040000fa
:04007400b0040000d4
:020000040000fa
:04007800b0040000d0
:020000040000fa
:04007c00b0040000cc
:020000040000fa
:04008000b0040000c8
:020000040000fa
:04008400b0040000c4
:020000040000fa
:04008800b0040000c0
:020000040000fa
:04008c00b0040000bc
:020000040000fa
:04009000b0040000b8
:020000040000fa
:04009400b0040000b4
:020000040000fa
:04009800b0040000b0
:020000040000fa
:04009c00b0040000ac
:020000040000fa
:0400a000b0040000a8
:020000040000fa
:0400a400b0040000a4
:020000040000fa
:0400a800b0040000a0
:020000040000fa
:0400ac00b00400009c
:020000040000fa
:0400b000b004000098
:020000040000fa
:0400b400b004000094
:020000040000fa
:0400b800b004000090
:020000040000fa
:0400bc00b00400008c
:020000040000fa
:0400c000b004000088
:020000040000fa
:0400c400b004000084
:020000040000fa
:0400c800b004000080
:020000040000fa
:04010800b00400003f
:020000040000fa
:04010c00b00400003b
:020000040000fa
:04011000b004000037
:020000040000fa
:04011400b004000033
:020000040000fa
:04011800b00400002f
:020000040000fa
:04011c00b00400002b
:020000040000fa
:04012000b004000027
:020000040000fa
:04012400b004000023
:020000040000fa
:04012800b00400001f
:020000040000fa
:04012c00b00400001b
:020000040000fa
:04013000b004000017
:020000040000fa
:04013400b004000013
:020000040000fa
:04013800b00400000f
:020000040000fa
:04013c00b00400000b
:020000040000fa
:04014000b004000007
:020000040000fa
:04014400b004000003
:020000040000fa
:04014800b0040000ff
:020000040000fa
:04014c00b0040000fb
:020000040000fa
:04015000b0040000f7
:020000040000fa
:04015400b0040000f3
:020000040000fa
:04015800b0040000ef
:020000040000fa
:04015c00b0040000eb
:020000040000fa
:04016000b0040000e7
:020000040000fa
:04016400b0040000e3
:020000040000fa
:04016800b0040000df
:020000040000fa
:04016c00b0040000db
:020000040000fa
:04017000b0040000d7
:020000040000fa
:04017400b0040000d3
:020000040000fa
:04017800b0040000cf
:020000040000fa
:04017c00b0040000cb
:020000040000fa
:04018000b0040000c7
:020000040000fa
:04018400b0040000c3
:020000040000fa
:04018800b0040000bf
:020000040000fa
:04018c00b0040000bb
:020000040000fa
:04019000b0040000b7
:020000040000fa
:04019400b0040000b3
:020000040000fa
:04019800b0040000af
:020000040000fa
:04019c00b0040000ab
:020000040000fa
:0401a000b0040000a7
:020000040000fa
:0401a400b0040000a3
:020000040000fa
:0401a800b00400009f
:020000040000fa
:0401ac00b00400009b
:020000040000fa
:0401b000b004000097
:020000040000fa
:0401b400b004000093
:020000040000fa
:0401b800b00400008f
:020000040000fa
:0401bc00b00400008b
:020000040000fa
:0401c000b004000087
:020000040000fa
:0401c400b004000083
:020000040000fa
:0401c800b00400007f
:020000040000fa
:100200004f9920000e9f20000e0188000000000082
:10021000000020000000e000020032000001200089
:100220002002880014000700cf0107000000e00052
:1002300003003a00604b200001002000020037005c
:100240000000200001002000810f7000010032003a
:1002500014000700000020000000e000020032004f
:100260000000020000000000ec0502000000000099
:100270000040da000000fe004440a9000000200019
:100280000000e0000300320000002000a001880010
:100290004440a800000006008a1f78008b1f7800e9
:1002a0000000060091018800800478000000eb0047
:1002b0001a003700e284440032a0b4009905ba0065
:1002c000e284440032a0b4009906ba00e2844400fb
:1002d00032a0b4000006eb00476fde00fd07b2005d
:1002e000636ce10003003a00ebff07000000eb0045
:1002f0000a003700606ce10004003a00005deb008a
:100300008b05e900fdff3e00040037006168e10055
:10031000010032000086eb000b00070019c7ba008d
:100320001905ba000e04e00003003a000a00e000dc
:10033000e0ff3a0000000600fe07b2009e018800c0
:100340008a047800f5ff3700395dba008b05e900b3
:100350000c003200295dba008b05e900080032006c
:100360000c00e00003003a00e284440032a0b40034
:10037000f5ff370019ddba008b05e900faff3a00f6
:100380008904e800e184440032a0b40000000600c3
:100390003600f800809fbe00829fbe00849fbe0092
:1003a000869fbe003400f80000002000a0018800f5
:1003b0000000fa0005e1a900804c80000000e00088
:1003c000aa003200904c80000000e9004200dd00ed
:1003d0008080e8000080200000804000100078004d
:1003e00010088800904c80000000e00003003400fa
:1003f000904c8000e40f500008003400914c8000c5
:10040000e0022000808f50000c003400914c8000ee
:1004100020032000808f500008003c008005200051
:10042000e0168800c000200001002000dc01070069
:10043000a0052000e01688008a003700904c80005c
:10044000e40f500003003400904c8000e80f50008f
:1004500008003400914c8000a0022000808f5000e2
:100460000c003400914c8000e0022000808f50008e
:1004700008003c0090012000e0168800c000200029
:1004800001002000c601070090052000e01688004a
:1004900074003700904c8000e80f500003003400d7
:1004a000904c8000ed0f500008003400914c80000b
:1004b00050022000808f50000c003400914c8000ce
:1004c000a0022000808f500008003c009000200017
:1004d000e0168800c000200001002000b0010700e5
:1004e00090092000e01688005e003700904c8000e4
:1004f000ed0f50000c003400914c800050022000a1
:10050000808f500008003c0090022000e016880018
:10051000c000200001002000a1010700900620007b
:10052000e01688004f003700914c80002003200027
:10053000808f500004003400914c80006003200044
:10054000808f500008003400914c8000000620008d
:10055000808f50000c003400914c80004006200039
:10056000808f500008003c0020052000e016880025
:10057000c00020000100200089010700a005200024
:10058000e016880037003700914c8000600320009f
:10059000808f500004003400914c8000a0032000a4
:1005a000808f500008003400914c8000c00520006e
:1005b000808f50000c003400914c80000006200019
:1005c000808f500008003c0060012000e016880089
:1005d000c00020000100200071010700600520001c
:1005e000e01688001f003700914c8000a003200017
:1005f000808f500004003400914c8000f0032000f4
:10060000808f500008003400914c8000700520005d
:10061000808f50000c003400914c8000c0052000f9
:10062000808f500008003c0060002000e016880029
:10063000c0002000010020005901070060092000cf
:10064000e01688000700370060022000e0168800ee
:10065000c0002000010020005101070060062000ba
:10066000e01688009029ef00b2003700904c80001f
:100670000000e800904c8800914c8000500620005b
:10068000808f500002003a0010002000904c88003b
:10069000904c80000000e900c200dd0000802000d6
:1006a000008040001000780010088800904c800006
:1006b0000000e00003003400904c8000e40f500084
:1006c00008003400914c8000e0022000808f500030
:1006d0000c003400914c800020032000808f5000db
:1006e00008003c0080052000e0168800c0002000c3
:1006f000010020002a01070090052000e016880074
:100700008a003700904c8000e40f50000300340052
:10071000904c8000e80f500008003400914c80009d
:10072000a0022000808f50000c003400914c80000b
:10073000e0022000808f500008003c008001200073
:10074000e0168800c000200001002000140107000e
:1007500090092000e016880074003700904c80005b
:10076000e80f500003003400904c8000ed0f500063
:1007700008003400914c800050022000808f50000f
:100780000c003400914c8000a0022000808f5000ab
:1007900008003c0090002000e0168800c000200007
:1007a00001002000fe00070090062000e0168800ef
:1007b0005e003700904c8000ed0f50000c003400bc
:1007c000914c800050022000808f500008003c00b7
:1007d00090002000e0168800c000200001002000ea
:1007e000ef000700900a2000e01688004f00370055
:1007f000914c800020032000808f500004003400c2
:10080000914c800060032000808f5000080034006d
:10081000914c800000062000808f50000c003400b6
:10082000914c800040062000808f500008003c0062
:1008300020052000e0168800c000200001002000f4
:10084000d700070060052000e01688003700370059
:10085000914c800060032000808f50000400340021
:10086000914c8000a0032000808f500008003400cd
:10087000914c8000c0052000808f50000c00340097
:10088000914c800000062000808f500008003c0042
:1008900020012000e0168800c00020000100200098
:1008a000bf00070060092000e01688001f00370025
:1008b000914c8000a0032000808f50000400340081
:1008c000914c8000f0032000808f5000080034001d
:1008d000914c800070052000808f50000c00340087
:1008e000914c8000c0052000808f500008003c0023
:1008f00060002000e0168800c000200001002000f9
:10090000a700070060062000e016880007003700f7
:1009100060002000e0168800c000200001002000d8
:100920009f000700600a2000e016880010002000e9
:10093000804c88000021ef008460a90005e1a80038
:100940000080fa003400f9004f03be004f02be00e1
:100950004f01be004f00be003600f9000040060007
:0c0960000040da000000fe00000005006e
:020000040000fa
:10096c0090090000040000000000000000080000d6
:10097c009001000002000000d901d9000c8805008c
:10098c002a09320009800500d30cdf0001b40100f4
:10099c00fe0c3700057b0900a6080c0006fe0b00b8
:1009ac00b4028800002a0e00a6030c000ba306005c
:1009bc000f087b00093705002d0c85000202000092
:1009cc00b00e5c0002560c0088042a000a82060055
:1009dc0030084a0008680600dc09d60004380b0011
:1009ec007a035c000c560200480d6a0001f90d00f8
:1009fc00b9006f000e430000ab0e070000ab0e00f9
:100a0c0007006f000e430000f90db90000480d00ff
:100a1c006a015c000c560200380b7a0003dc0900fa
:100a2c00d6044a00086806008206300008880400d4
:100a3c002a0a5c0002560c000200b0000e2d0c00bd
:100a4c0085027b0009370500a3060f0008a60300ea
:100a5c000c0b8800002a0e00fe0bb40002a6080046
:100a6c000c063700057b0900b401fe000cd30c000a
:100a7c00df0132000980050088052a0009d9010030
:100a8c00d90cd90001d90c0088052a0009320900bb
:100a9c008005d3000cdf0100b401fe000c3705000b
:100aac007b09a600080c0600fe0bb40002880000af
:100abc002a0ea600030c0b00a3060f00087b0900ee
:100acc0037052d000c8502000200b0000e5c020000
:100adc00560c8800042a0a0082063000084a0800d6
:100aec006806dc0009d60400380b7a00035c0c00a5
:100afc00560248000d6a0100f90db900006f0e0096
:100b0c004300ab000e070000ab0e0700006f0e0099
:100b1c004300f9000db90000480d6a00015c0c009f
:100b2c00560238000b7a0300dc09d600044a080090
:100b3c00680682000630080088042a000a5c02005d
:100b4c00560c020000b00e002d0c8500027b090033
:100b5c003705a300060f0800a6030c000b88000045
:100b6c002a0efe000bb40200a6080c000637050086
:100b7c007b09b40001fe0c00d30cdf00013209002c
:100b8c0080058800052a0900d901d9000c00000055
:040b9c000000000055
:020000040000fa
:100ba000f03fb1000180b10006003500ee030900fe
:100bb00000000000403fb1000180b100fbff3d009c
:100bc0001000b000203fb000020035000080090096
:080bd000000000000000060017
:020000040000fa
:100bd8000000fa00d822ef00dc22ef00c0f320006a
:100be800100888000021ef00210580000000270080
:100bf80001007000200588009460a80005e1a800a5
:040c0800ffff3700b3
:020000040000fa
:0200000401f009
:04000000ffff0000fe
:020000040000fa
:0200000401f009
:04000800ffff0000f6
:020000040000fa
:0200000401f009
:04000c00ffff0000f2
:020000040000fa
:0200000401f009
:04001000beff00002f
:020000040000fa
:0200000401f009
:040014007fff00006a
:020000040000fa
:0200000401f009
:04001800ffff0000e6
:020000040000fa
:0200000401f009
:04001c00ffff0000e2
:00000001FF
